{
  "contractName": "D",
  "abi": [
    {
      "constant": true,
      "inputs": [],
      "name": "getData",
      "outputs": [
        {
          "internalType": "uint256",
          "name": "",
          "type": "uint256"
        }
      ],
      "payable": false,
      "stateMutability": "view",
      "type": "function"
    },
    {
      "constant": true,
      "inputs": [],
      "name": "info",
      "outputs": [
        {
          "internalType": "uint256",
          "name": "",
          "type": "uint256"
        }
      ],
      "payable": false,
      "stateMutability": "view",
      "type": "function"
    },
    {
      "constant": true,
      "inputs": [],
      "name": "result",
      "outputs": [
        {
          "internalType": "uint256",
          "name": "",
          "type": "uint256"
        }
      ],
      "payable": false,
      "stateMutability": "view",
      "type": "function"
    },
    {
      "constant": false,
      "inputs": [
        {
          "internalType": "uint256",
          "name": "a",
          "type": "uint256"
        }
      ],
      "name": "updateData",
      "outputs": [],
      "payable": false,
      "stateMutability": "nonpayable",
      "type": "function"
    },
    {
      "constant": false,
      "inputs": [
        {
          "internalType": "uint256",
          "name": "a",
          "type": "uint256"
        },
        {
          "internalType": "uint256",
          "name": "b",
          "type": "uint256"
        }
      ],
      "name": "getComputedResult",
      "outputs": [
        {
          "internalType": "uint256",
          "name": "",
          "type": "uint256"
        }
      ],
      "payable": false,
      "stateMutability": "nonpayable",
      "type": "function"
    },
    {
      "constant": true,
      "inputs": [],
      "name": "getResult",
      "outputs": [
        {
          "internalType": "uint256",
          "name": "",
          "type": "uint256"
        }
      ],
      "payable": false,
      "stateMutability": "view",
      "type": "function"
    }
  ],
  "bytecode": "0x6080604052600a6001819055506101dc8061001b6000396000f3fe608060405234801561001057600080fd5b50600436106100625760003560e01c806309e9600814610067578063370158ea146100955780633bc5de30146100b357806365372147146100d1578063de292789146100ef578063fdbc92a21461010d575b600080fd5b6100936004803603602081101561007d57600080fd5b8101908080359060200190929190505050610159565b005b61009d610163565b6040518082815260200191505060405180910390f35b6100bb610169565b6040518082815260200191505060405180910390f35b6100d9610172565b6040518082815260200191505060405180910390f35b6100f7610178565b6040518082815260200191505060405180910390f35b6101436004803603604081101561012357600080fd5b810190808035906020019092919080359060200190929190505050610182565b6040518082815260200191505060405180910390f35b8060008190555050565b60015481565b60008054905090565b60025481565b6000600254905090565b600061018e838361019a565b60028190555092915050565b600081830190509291505056fea265627a7a723158207cba7bdf1aba258a9b78e67da1de89a08b95752f03e2d6b58a15d37b4e361c3a64736f6c63430005100032",
  "source": "pragma solidity ^0.5.4;\r\n\r\n\r\ncontract SampleContract {\r\n    // Private variable\r\n    uint256 private data;\r\n    //Public variable\r\n    uint256 public info;\r\n\r\n    //Construtor for Contract\r\n    constructor() public {\r\n        info = 10;\r\n    }\r\n\r\n    //Private function\r\n    //Pure keyword - since no use of any state variable inside function. neither reading nor editing\r\n    function incrementor(uint256 a) private pure returns (uint256) {\r\n        return ++a;\r\n    }\r\n\r\n    //Public function\r\n    function updateData(uint256 a) public {\r\n        data = a;\r\n    }\r\n\r\n    //Public function\r\n    // View keyword - Use when you are using state variable inside function and not changing it's state(Only readonly)\r\n    function getData() public view returns (uint256) {\r\n        return data;\r\n    }\r\n\r\n    //Internal function - intend to use internally or inside derived contract\r\n    function compute(uint256 a, uint256 b) internal pure returns (uint256) {\r\n        return a + b;\r\n    }\r\n}\r\n\r\n\r\ncontract D is SampleContract {\r\n    uint256 public result;\r\n\r\n    function getComputedResult(uint256 a, uint256 b) public returns (uint256) {\r\n        //Internal marked function can be used inside derived contract without referencing contract instance\r\n        result = compute(a, b);\r\n    }\r\n\r\n    function getResult() public view returns (uint256) {\r\n        //Internal marked function can be used inside derived contract without referencing contract instance\r\n        return result;\r\n    }\r\n}\r\n",
  "sourcePath": "C:\\Users\\sshankariya\\Desktop\\DAPP-Examples\\DAPP-6\\contracts\\SampleContract.sol",
  "compiler": {
    "name": "solc",
    "version": "0.5.16+commit.9c3226ce.Emscripten.clang"
  },
  "schemaVersion": "3.0.23",
  "updatedAt": "2020-04-11T16:12:23.985Z",
  "networkType": "ethereum",
  "devdoc": {
    "methods": {}
  },
  "userdoc": {
    "methods": {}
  }
}