{
  "contractName": "PetAdoption",
  "abi": [
    {
      "anonymous": false,
      "inputs": [
        {
          "indexed": false,
          "internalType": "string",
          "name": "petName",
          "type": "string"
        }
      ],
      "name": "NotifyAdoptor",
      "type": "event"
    },
    {
      "constant": true,
      "inputs": [
        {
          "internalType": "address",
          "name": "",
          "type": "address"
        }
      ],
      "name": "petAdoptors",
      "outputs": [
        {
          "internalType": "string",
          "name": "",
          "type": "string"
        }
      ],
      "payable": false,
      "stateMutability": "view",
      "type": "function"
    },
    {
      "constant": true,
      "inputs": [
        {
          "internalType": "address",
          "name": "",
          "type": "address"
        }
      ],
      "name": "petNameList",
      "outputs": [
        {
          "internalType": "string",
          "name": "",
          "type": "string"
        }
      ],
      "payable": false,
      "stateMutability": "view",
      "type": "function"
    },
    {
      "constant": false,
      "inputs": [
        {
          "internalType": "string",
          "name": "_petName",
          "type": "string"
        },
        {
          "internalType": "string",
          "name": "_adoptorName",
          "type": "string"
        }
      ],
      "name": "adoptPet",
      "outputs": [
        {
          "internalType": "bool",
          "name": "",
          "type": "bool"
        }
      ],
      "payable": false,
      "stateMutability": "nonpayable",
      "type": "function"
    },
    {
      "constant": true,
      "inputs": [],
      "name": "getAllAdoptorList",
      "outputs": [
        {
          "internalType": "string[]",
          "name": "",
          "type": "string[]"
        }
      ],
      "payable": false,
      "stateMutability": "pure",
      "type": "function"
    }
  ],
  "bytecode": "0x608060405234801561001057600080fd5b50610740806100206000396000f3fe608060405234801561001057600080fd5b506004361061004c5760003560e01c80632760a67214610051578063434dadf014610081578063a4ade435146100b1578063e726fb6d146100e1575b600080fd5b61006b60048036036100669190810190610338565b6100ff565b6040516100789190610554565b60405180910390f35b61009b60048036036100969190810190610338565b6101af565b6040516100a89190610554565b60405180910390f35b6100cb60048036036100c69190810190610361565b61025f565b6040516100d89190610539565b60405180910390f35b6100e96102c5565b6040516100f69190610517565b60405180910390f35b60006020528060005260406000206000915090508054600181600116156101000203166002900480601f0160208091040260200160405190810160405280929190818152602001828054600181600116156101000203166002900480156101a75780601f1061017c576101008083540402835291602001916101a7565b820191906000526020600020905b81548152906001019060200180831161018a57829003601f168201915b505050505081565b60016020528060005260406000206000915090508054600181600116156101000203166002900480601f0160208091040260200160405190810160405280929190818152602001828054600181600116156101000203166002900480156102575780601f1061022c57610100808354040283529160200191610257565b820191906000526020600020905b81548152906001019060200180831161023a57829003601f168201915b505050505081565b6000806000905060008451118015610278575060008351115b6102b7576040517f08c379a00000000000000000000000000000000000000000000000000000000081526004016102ae90610576565b60405180910390fd5b600190508091505092915050565b6060808091505090565b6000813590506102de816106e6565b92915050565b600082601f8301126102f557600080fd5b8135610308610303826105c3565b610596565b9150808252602083016020830185838301111561032457600080fd5b61032f838284610693565b50505092915050565b60006020828403121561034a57600080fd5b6000610358848285016102cf565b91505092915050565b6000806040838503121561037457600080fd5b600083013567ffffffffffffffff81111561038e57600080fd5b61039a858286016102e4565b925050602083013567ffffffffffffffff8111156103b757600080fd5b6103c3858286016102e4565b9150509250929050565b60006103d98383610465565b905092915050565b60006103ec826105ff565b6103f68185610622565b935083602082028501610408856105ef565b8060005b85811015610444578484038952815161042585826103cd565b945061043083610615565b925060208a0199505060018101905061040c565b50829750879550505050505092915050565b61045f81610667565b82525050565b60006104708261060a565b61047a8185610633565b935061048a8185602086016106a2565b610493816106d5565b840191505092915050565b60006104a98261060a565b6104b38185610644565b93506104c38185602086016106a2565b6104cc816106d5565b840191505092915050565b60006104e4601583610644565b91507f446f65736e2774206d65657420637269746572696100000000000000000000006000830152602082019050919050565b6000602082019050818103600083015261053181846103e1565b905092915050565b600060208201905061054e6000830184610456565b92915050565b6000602082019050818103600083015261056e818461049e565b905092915050565b6000602082019050818103600083015261058f816104d7565b9050919050565b6000604051905081810181811067ffffffffffffffff821117156105b957600080fd5b8060405250919050565b600067ffffffffffffffff8211156105da57600080fd5b601f19601f8301169050602081019050919050565b6000819050602082019050919050565b600081519050919050565b600081519050919050565b6000602082019050919050565b600082825260208201905092915050565b600082825260208201905092915050565b600082825260208201905092915050565b600061066082610673565b9050919050565b60008115159050919050565b600073ffffffffffffffffffffffffffffffffffffffff82169050919050565b82818337600083830152505050565b60005b838110156106c05780820151818401526020810190506106a5565b838111156106cf576000848401525b50505050565b6000601f19601f8301169050919050565b6106ef81610655565b81146106fa57600080fd5b5056fea365627a7a7231582037afc91e931ec316fcf7f5121b8af23a108d9eaa331611ea6ed7759c55898d8d6c6578706572696d656e74616cf564736f6c63430005100040",
  "source": "pragma solidity ^0.5.4;\r\npragma experimental ABIEncoderV2;\r\n\r\n\r\ncontract PetAdoption {\r\n    mapping(address => string) public petAdoptors;\r\n    mapping(address => string) public petNameList;\r\n\r\n    event NotifyAdoptor(string petName);\r\n\r\n    function adoptPet(string memory _petName, string memory _adoptorName)\r\n        public\r\n        returns(bool)\r\n    {\r\n        bool flag = false;\r\n        require(bytes(_petName).length > 0 && bytes(_adoptorName).length > 0,  \"Doesn't meet criteria\");\r\n        //if (petNameBytes.length < 0 && adoptorNameBytes.length < 0) {\r\n            //petAdoptors[msg.sender] = _adoptorName;\r\n            //petNameList[msg.sender] = _petName;\r\n            flag = true;\r\n        //}\r\n        //emit NotifyAdoptor(_petName);\r\n        return flag;\r\n    }\r\n\r\n    function getAllAdoptorList() public pure returns (string[] memory) {\r\n        string[] memory _adoptLst;\r\n        /*for (uint8 i = 0; i <= petAdoptors.length - 1; i++) {\r\n            _adoptLst.push(petAdoptors[i]);\r\n        }*/\r\n        return _adoptLst;\r\n    }\r\n}\r\n",
  "sourcePath": "C:\\Users\\sshankariya\\Desktop\\DAPP-Examples\\DAPP-8\\contracts\\PetAdoption.sol",
  "compiler": {
    "name": "solc",
    "version": "0.5.16+commit.9c3226ce.Emscripten.clang"
  },
  "schemaVersion": "3.0.23",
  "updatedAt": "2020-04-16T07:34:31.447Z",
  "networkType": "ethereum",
  "devdoc": {
    "methods": {}
  },
  "userdoc": {
    "methods": {}
  }
}