{
  "contractName": "TodoList",
  "abi": [
    {
      "inputs": [],
      "payable": false,
      "stateMutability": "nonpayable",
      "type": "constructor"
    },
    {
      "anonymous": false,
      "inputs": [
        {
          "indexed": false,
          "internalType": "uint256",
          "name": "id",
          "type": "uint256"
        },
        {
          "indexed": false,
          "internalType": "bool",
          "name": "completed",
          "type": "bool"
        }
      ],
      "name": "TaskCompleted",
      "type": "event"
    },
    {
      "anonymous": false,
      "inputs": [
        {
          "indexed": false,
          "internalType": "uint256",
          "name": "id",
          "type": "uint256"
        },
        {
          "indexed": false,
          "internalType": "string",
          "name": "content",
          "type": "string"
        },
        {
          "indexed": false,
          "internalType": "bool",
          "name": "completed",
          "type": "bool"
        }
      ],
      "name": "TaskCreated",
      "type": "event"
    },
    {
      "constant": true,
      "inputs": [],
      "name": "taskCount",
      "outputs": [
        {
          "internalType": "uint256",
          "name": "",
          "type": "uint256"
        }
      ],
      "payable": false,
      "stateMutability": "view",
      "type": "function"
    },
    {
      "constant": true,
      "inputs": [
        {
          "internalType": "uint256",
          "name": "",
          "type": "uint256"
        }
      ],
      "name": "taskList",
      "outputs": [
        {
          "internalType": "uint256",
          "name": "id",
          "type": "uint256"
        },
        {
          "internalType": "string",
          "name": "content",
          "type": "string"
        },
        {
          "internalType": "bool",
          "name": "completed",
          "type": "bool"
        }
      ],
      "payable": false,
      "stateMutability": "view",
      "type": "function"
    },
    {
      "constant": false,
      "inputs": [
        {
          "internalType": "string",
          "name": "_content",
          "type": "string"
        }
      ],
      "name": "createTask",
      "outputs": [],
      "payable": false,
      "stateMutability": "nonpayable",
      "type": "function"
    },
    {
      "constant": false,
      "inputs": [
        {
          "internalType": "uint256",
          "name": "_id",
          "type": "uint256"
        }
      ],
      "name": "markCompleted",
      "outputs": [],
      "payable": false,
      "stateMutability": "nonpayable",
      "type": "function"
    }
  ],
  "bytecode": "0x60806040526000805534801561001457600080fd5b5061003c604051806060016040528060358152602001610a746035913961004160201b60201c565b6102a2565b60008151116100b8576040517f08c379a000000000000000000000000000000000000000000000000000000000815260040180806020018281038252601b8152602001807f436f6e74656e742073686f756c64206e6f7420626520656d707479000000000081525060200191505060405180910390fd5b6000808154809291906001019190505550604051806060016040528060005481526020018281526020016000151581525060016000805481526020019081526020016000206000820151816000015560208201518160010190805190602001906101239291906101fd565b5060408201518160020160006101000a81548160ff0219169083151502179055509050507f05d0fb833127fc08168556d0e7ca9554fc3f6bc843b3b7d2bf1c35aea6bab660600054826000604051808481526020018060200183151515158152602001828103825284818151815260200191508051906020019080838360005b838110156101be5780820151818401526020810190506101a3565b50505050905090810190601f1680156101eb5780820380516001836020036101000a031916815260200191505b5094505050505060405180910390a150565b828054600181600116156101000203166002900490600052602060002090601f016020900481019282601f1061023e57805160ff191683800117855561026c565b8280016001018555821561026c579182015b8281111561026b578251825591602001919060010190610250565b5b509050610279919061027d565b5090565b61029f91905b8082111561029b576000816000905550600101610283565b5090565b90565b6107c3806102b16000396000f3fe608060405234801561001057600080fd5b506004361061004c5760003560e01c8063111002aa146100515780632a1c52a51461010c578063b6cb58a5146101c5578063cac5c512146101e3575b600080fd5b61010a6004803603602081101561006757600080fd5b810190808035906020019064010000000081111561008457600080fd5b82018360208201111561009657600080fd5b803590602001918460018302840111640100000000831117156100b857600080fd5b91908080601f016020809104026020016040519081016040528093929190818152602001838380828437600081840152601f19601f820116905080830192505050505050509192919290505050610211565b005b6101386004803603602081101561012257600080fd5b81019080803590602001909291905050506103cd565b604051808481526020018060200183151515158152602001828103825284818151815260200191508051906020019080838360005b8381101561018857808201518184015260208101905061016d565b50505050905090810190601f1680156101b55780820380516001836020036101000a031916815260200191505b5094505050505060405180910390f35b6101cd61049c565b6040518082815260200191505060405180910390f35b61020f600480360360208110156101f957600080fd5b81019080803590602001909291905050506104a2565b005b6000815111610288576040517f08c379a000000000000000000000000000000000000000000000000000000000815260040180806020018281038252601b8152602001807f436f6e74656e742073686f756c64206e6f7420626520656d707479000000000081525060200191505060405180910390fd5b6000808154809291906001019190505550604051806060016040528060005481526020018281526020016000151581525060016000805481526020019081526020016000206000820151816000015560208201518160010190805190602001906102f39291906106c6565b5060408201518160020160006101000a81548160ff0219169083151502179055509050507f05d0fb833127fc08168556d0e7ca9554fc3f6bc843b3b7d2bf1c35aea6bab660600054826000604051808481526020018060200183151515158152602001828103825284818151815260200191508051906020019080838360005b8381101561038e578082015181840152602081019050610373565b50505050905090810190601f1680156103bb5780820380516001836020036101000a031916815260200191505b5094505050505060405180910390a150565b6001602052806000526040600020600091509050806000015490806001018054600181600116156101000203166002900480601f01602080910402602001604051908101604052809291908181526020018280546001816001161561010002031660029004801561047f5780601f106104545761010080835404028352916020019161047f565b820191906000526020600020905b81548152906001019060200180831161046257829003601f168201915b5050505050908060020160009054906101000a900460ff16905083565b60005481565b6000811015610519576040517f08c379a00000000000000000000000000000000000000000000000000000000081526004018080602001828103825260188152602001807f5461736b204964206d75737420626520706f736974697665000000000000000081525060200191505060405180910390fd5b610521610746565b6001600083815260200190815260200160002060405180606001604052908160008201548152602001600182018054600181600116156101000203166002900480601f0160208091040260200160405190810160405280929190818152602001828054600181600116156101000203166002900480156105e25780601f106105b7576101008083540402835291602001916105e2565b820191906000526020600020905b8154815290600101906020018083116105c557829003601f168201915b505050505081526020016002820160009054906101000a900460ff161515151581525050905080604001511581604001901515908115158152505080600160008481526020019081526020016000206000820151816000015560208201518160010190805190602001906106579291906106c6565b5060408201518160020160006101000a81548160ff0219169083151502179055509050507fe21fa966ca5cd02748c0752352d18c48165e61cb55b4c29cccf924b5a95fcff182826040015160405180838152602001821515151581526020019250505060405180910390a15050565b828054600181600116156101000203166002900490600052602060002090601f016020900481019282601f1061070757805160ff1916838001178555610735565b82800160010185558215610735579182015b82811115610734578251825591602001919060010190610719565b5b5090506107429190610769565b5090565b604051806060016040528060008152602001606081526020016000151581525090565b61078b91905b8082111561078757600081600090555060010161076f565b5090565b9056fea265627a7a72315820162bcdd690ae0174264fa21ea23d7358061443b53197632b8119cf1a526e9c6664736f6c634300051000325468697320697320612064656661756c74207461736b2063726561746564206f6e20636f6e747261637420696e697469616c697a65",
  "source": "pragma solidity ^0.5.4;\r\n\r\n\r\n/*\r\n * @Title contract name\r\n * @dev - Contract will keep a track of todo list\r\n */\r\ncontract TodoList {\r\n    //State variable, public access\r\n    //Any data that we store inside this state variable is written to storage on the blockchain.\r\n    //It changes the smart contract's state, and has scope within the entire smart contract\r\n    uint256 public taskCount = 0; //Set default value\r\n\r\n    //Task model to list out array of task. Use struct for creating custom task modal\r\n    struct Task {\r\n        uint256 id;\r\n        string content;\r\n        bool completed;\r\n    }\r\n\r\n    //To map all the task\r\n    //Mapping -> Act like associated array that will hold unique id and Tasl struct object\r\n    mapping(uint256 => Task) public taskList;\r\n\r\n    //Constructor to perform initial operation on contract creation. It will get call only once.\r\n    constructor() public {\r\n        createTask(\"This is a default task created on contract initialize\");\r\n    }\r\n\r\n    //Event declaration\r\n    //Trigger this event to notify client side once task has been created\r\n    event TaskCreated(uint256 id, string content, bool completed);\r\n\r\n    //Trigger this event to notify client side once task has been completed\r\n    event TaskCompleted(uint256 id, bool completed);\r\n\r\n    //Fucntion to create task and populate taskList\r\n    //Require - condition to check content is not empty or else throw message\r\n    // memory - to persist content input into memory location\r\n    function createTask(string memory _content) public {\r\n        require(bytes(_content).length > 0, \"Content should not be empty\");\r\n        taskCount++;\r\n        taskList[taskCount] = Task(taskCount, _content, false);\r\n        //Emit event\r\n        emit TaskCreated(taskCount, _content, false);\r\n    }\r\n\r\n    //Fucntion to mark task as completed\r\n    //Require - condition to check content is not empty or else throw message\r\n    // memory - to persist content input into memory location\r\n    //Emit event once task completed and notify client side\r\n    function markCompleted(uint256 _id) public {\r\n        require(_id >= 0, \"Task Id must be positive\");\r\n        Task memory _task = taskList[_id];\r\n        _task.completed = !_task.completed;\r\n        taskList[_id] = _task;\r\n        emit TaskCompleted(_id, _task.completed);\r\n    }\r\n}\r\n",
  "sourcePath": "C:\\Users\\sshankariya\\Desktop\\DAPP-Examples\\DAPP-10\\contracts\\TodoList.sol",
  "compiler": {
    "name": "solc",
    "version": "0.5.16+commit.9c3226ce.Emscripten.clang"
  },
  "schemaVersion": "3.0.23",
  "updatedAt": "2020-04-20T15:56:54.716Z",
  "networkType": "ethereum",
  "devdoc": {
    "methods": {}
  },
  "userdoc": {
    "methods": {}
  }
}