{
  "contractName": "SampleContract",
  "abi": [
    {
      "constant": true,
      "inputs": [
        {
          "internalType": "uint256",
          "name": "",
          "type": "uint256"
        }
      ],
      "name": "listOfIds",
      "outputs": [
        {
          "internalType": "uint256",
          "name": "",
          "type": "uint256"
        }
      ],
      "payable": false,
      "stateMutability": "view",
      "type": "function"
    },
    {
      "constant": false,
      "inputs": [
        {
          "internalType": "uint256",
          "name": "id",
          "type": "uint256"
        }
      ],
      "name": "setId",
      "outputs": [],
      "payable": false,
      "stateMutability": "nonpayable",
      "type": "function"
    },
    {
      "constant": true,
      "inputs": [],
      "name": "getAllId",
      "outputs": [
        {
          "internalType": "uint256[]",
          "name": "",
          "type": "uint256[]"
        }
      ],
      "payable": false,
      "stateMutability": "view",
      "type": "function"
    },
    {
      "constant": true,
      "inputs": [
        {
          "internalType": "uint256",
          "name": "position",
          "type": "uint256"
        }
      ],
      "name": "getId",
      "outputs": [
        {
          "internalType": "uint256",
          "name": "id",
          "type": "uint256"
        }
      ],
      "payable": false,
      "stateMutability": "view",
      "type": "function"
    },
    {
      "constant": true,
      "inputs": [],
      "name": "getLength",
      "outputs": [
        {
          "internalType": "uint256",
          "name": "id",
          "type": "uint256"
        }
      ],
      "payable": false,
      "stateMutability": "view",
      "type": "function"
    }
  ],
  "bytecode": "0x608060405234801561001057600080fd5b506102a8806100206000396000f3fe608060405234801561001057600080fd5b50600436106100575760003560e01c806325e856521461005c578063545a153a1461009e578063883df3e8146100e0578063be1c766b1461013f578063d0e0ba951461015d575b600080fd5b6100886004803603602081101561007257600080fd5b810190808035906020019092919050505061018b565b6040518082815260200191505060405180910390f35b6100ca600480360360208110156100b457600080fd5b81019080803590602001909291905050506101ac565b6040518082815260200191505060405180910390f35b6100e86101e0565b6040518080602001828103825283818151815260200191508051906020019060200280838360005b8381101561012b578082015181840152602081019050610110565b505050509050019250505060405180910390f35b610147610238565b6040518082815260200191505060405180910390f35b6101896004803603602081101561017357600080fd5b8101908080359060200190929190505050610244565b005b6000818154811061019857fe5b906000526020600020016000915090505481565b60008060008054905011156101da57600082815481106101c857fe5b906000526020600020015490506101db565b5b919050565b6060600080548060200260200160405190810160405280929190818152602001828054801561022e57602002820191906000526020600020905b81548152602001906001019080831161021a575b5050505050905090565b60008080549050905090565b60008190806001815401808255809150509060018203906000526020600020016000909192909190915055505056fea265627a7a72315820ebcc4b1d88f1ac252b27248bf47f96a7615e366f16f7b8cd9a4e6f5a47f916e764736f6c63430005100032",
  "source": "pragma solidity ^0.5.4;\r\n\r\ncontract SampleContract{\r\n    uint[] public listOfIds;\r\n\r\n    function setId(uint id) public{\r\n        listOfIds.push(id);\r\n    } \r\n\r\n    function getAllId() public view returns(uint[] memory) {\r\n        return listOfIds;\r\n    }\r\n\r\n    function getId(uint position) public view returns(uint id){\r\n        if(listOfIds.length > 0){\r\n            return listOfIds[position];\r\n        }\r\n    }\r\n\r\n    function getLength() public view returns(uint id){\r\n        return listOfIds.length;\r\n    }\r\n}",
  "sourcePath": "C:\\Users\\sshankariya\\Desktop\\DAPP-Examples\\DAPP-4\\contracts\\SampleContract.sol",
  "compiler": {
    "name": "solc",
    "version": "0.5.16+commit.9c3226ce.Emscripten.clang"
  },
  "schemaVersion": "3.0.23",
  "updatedAt": "2020-04-10T11:20:36.476Z",
  "devdoc": {
    "methods": {}
  },
  "userdoc": {
    "methods": {}
  }
}