{
  "contractName": "Voting",
  "abi": [
    {
      "inputs": [
        {
          "internalType": "string[]",
          "name": "_candidateNames",
          "type": "string[]"
        }
      ],
      "payable": false,
      "stateMutability": "nonpayable",
      "type": "constructor"
    },
    {
      "constant": true,
      "inputs": [
        {
          "internalType": "uint256",
          "name": "",
          "type": "uint256"
        }
      ],
      "name": "candidateList",
      "outputs": [
        {
          "internalType": "string",
          "name": "",
          "type": "string"
        }
      ],
      "payable": false,
      "stateMutability": "view",
      "type": "function"
    },
    {
      "constant": true,
      "inputs": [
        {
          "internalType": "string",
          "name": "_candidateName",
          "type": "string"
        }
      ],
      "name": "getTotalVotesForCandidate",
      "outputs": [
        {
          "internalType": "uint256",
          "name": "",
          "type": "uint256"
        }
      ],
      "payable": false,
      "stateMutability": "view",
      "type": "function"
    },
    {
      "constant": false,
      "inputs": [
        {
          "internalType": "string",
          "name": "_candidateName",
          "type": "string"
        }
      ],
      "name": "voteForCandidate",
      "outputs": [],
      "payable": true,
      "stateMutability": "payable",
      "type": "function"
    },
    {
      "constant": false,
      "inputs": [
        {
          "internalType": "string",
          "name": "_candidateName",
          "type": "string"
        }
      ],
      "name": "addCandidate",
      "outputs": [],
      "payable": true,
      "stateMutability": "payable",
      "type": "function"
    },
    {
      "constant": true,
      "inputs": [],
      "name": "getAllCandidates",
      "outputs": [
        {
          "internalType": "string[]",
          "name": "",
          "type": "string[]"
        }
      ],
      "payable": false,
      "stateMutability": "view",
      "type": "function"
    },
    {
      "constant": true,
      "inputs": [
        {
          "internalType": "string",
          "name": "_name",
          "type": "string"
        }
      ],
      "name": "validCandidate",
      "outputs": [
        {
          "internalType": "bool",
          "name": "",
          "type": "bool"
        }
      ],
      "payable": false,
      "stateMutability": "view",
      "type": "function"
    }
  ],
  "bytecode": "0x60806040523480156200001157600080fd5b5060405162000f6238038062000f628339818101604052620000379190810190620002c3565b80600190805190602001906200004f92919062000057565b5050620003c2565b828054828255906000526020600020908101928215620000ab579160200282015b82811115620000aa57825182908051906020019062000099929190620000be565b509160200191906001019062000078565b5b509050620000ba919062000145565b5090565b828054600181600116156101000203166002900490600052602060002090601f016020900481019282601f106200010157805160ff191683800117855562000132565b8280016001018555821562000132579182015b828111156200013157825182559160200191906001019062000114565b5b50905062000141919062000176565b5090565b6200017391905b808211156200016f57600081816200016591906200019e565b506001016200014c565b5090565b90565b6200019b91905b80821115620001975760008160009055506001016200017d565b5090565b90565b50805460018160011615610100020316600290046000825580601f10620001c65750620001e7565b601f016020900490600052602060002090810190620001e6919062000176565b5b50565b600082601f830112620001fc57600080fd5b8151620002136200020d8262000336565b62000308565b9150818183526020840193506020810190508360005b838110156200025d578151860162000242888262000267565b84526020840193506020830192505060018101905062000229565b5050505092915050565b600082601f8301126200027957600080fd5b8151620002906200028a826200035f565b62000308565b91508082526020830160208301858383011115620002ad57600080fd5b620002ba8382846200038c565b50505092915050565b600060208284031215620002d657600080fd5b600082015167ffffffffffffffff811115620002f157600080fd5b620002ff84828501620001ea565b91505092915050565b6000604051905081810181811067ffffffffffffffff821117156200032c57600080fd5b8060405250919050565b600067ffffffffffffffff8211156200034e57600080fd5b602082029050602081019050919050565b600067ffffffffffffffff8211156200037757600080fd5b601f19601f8301169050602081019050919050565b60005b83811015620003ac5780820151818401526020810190506200038f565b83811115620003bc576000848401525b50505050565b610b9080620003d26000396000f3fe6080604052600436106100555760003560e01c80632e6997fe1461005a578063462e91ec14610085578063538c91b2146100a1578063b13c744b146100de578063dc87ae491461011b578063e89927ef14610158575b600080fd5b34801561006657600080fd5b5061006f610174565b60405161007c9190610929565b60405180910390f35b61009f600480360361009a9190810190610639565b61025d565b005b3480156100ad57600080fd5b506100c860048036036100c39190810190610639565b6102e8565b6040516100d5919061094b565b60405180910390f35b3480156100ea57600080fd5b506101056004803603610100919081019061067a565b61038a565b6040516101129190610966565b60405180910390f35b34801561012757600080fd5b50610142600480360361013d9190810190610639565b610443565b60405161014f91906109c8565b60405180910390f35b610172600480360361016d9190810190610639565b6104b3565b005b60606001805480602002602001604051908101604052809291908181526020016000905b82821015610254578382906000526020600020018054600181600116156101000203166002900480601f0160208091040260200160405190810160405280929190818152602001828054600181600116156101000203166002900480156102405780601f1061021557610100808354040283529160200191610240565b820191906000526020600020905b81548152906001019060200180831161022357829003601f168201915b505050505081526020019060010190610198565b50505050905090565b610266816102e8565b156102a6576040517f08c379a000000000000000000000000000000000000000000000000000000000815260040161029d906109a8565b60405180910390fd5b60018190806001815401808255809150509060018203906000526020600020016000909192909190915090805190602001906102e392919061052b565b505050565b600080600090505b6001808054905003811161037f578260405160200161030f91906108fb565b604051602081830303815290604052805190602001206001828154811061033257fe5b9060005260206000200160405160200161034c9190610912565b604051602081830303815290604052805190602001201415610372576001915050610385565b80806001019150506102f0565b50600090505b919050565b6001818154811061039757fe5b906000526020600020016000915090508054600181600116156101000203166002900480601f01602080910402602001604051908101604052809291908181526020018280546001816001161561010002031660029004801561043b5780601f106104105761010080835404028352916020019161043b565b820191906000526020600020905b81548152906001019060200180831161041e57829003601f168201915b505050505081565b600061044e826102e8565b61048d576040517f08c379a000000000000000000000000000000000000000000000000000000000815260040161048490610988565b60405180910390fd5b60008260405161049d91906108fb565b9081526020016040518091039020549050919050565b6104bc816102e8565b6104fb576040517f08c379a00000000000000000000000000000000000000000000000000000000081526004016104f290610988565b60405180910390fd5b600160008260405161050d91906108fb565b90815260200160405180910390206000828254019250508190555050565b828054600181600116156101000203166002900490600052602060002090601f016020900481019282601f1061056c57805160ff191683800117855561059a565b8280016001018555821561059a579182015b8281111561059957825182559160200191906001019061057e565b5b5090506105a791906105ab565b5090565b6105cd91905b808211156105c95760008160009055506001016105b1565b5090565b90565b600082601f8301126105e157600080fd5b81356105f46105ef82610a10565b6109e3565b9150808252602083016020830185838301111561061057600080fd5b61061b838284610ae3565b50505092915050565b60008135905061063381610b36565b92915050565b60006020828403121561064b57600080fd5b600082013567ffffffffffffffff81111561066557600080fd5b610671848285016105d0565b91505092915050565b60006020828403121561068c57600080fd5b600061069a84828501610624565b91505092915050565b60006106af838361076c565b905092915050565b60006106c282610a61565b6106cc8185610a8f565b9350836020820285016106de85610a3c565b8060005b8581101561071a57848403895281516106fb85826106a3565b945061070683610a82565b925060208a019950506001810190506106e2565b50829750879550505050505092915050565b61073581610acd565b82525050565b600061074682610a77565b6107508185610ac2565b9350610760818560208601610af2565b80840191505092915050565b600061077782610a6c565b6107818185610aa0565b9350610791818560208601610af2565b61079a81610b25565b840191505092915050565b60006107b082610a6c565b6107ba8185610ab1565b93506107ca818560208601610af2565b6107d381610b25565b840191505092915050565b6000815460018116600081146107fb576001811461082057610864565b607f600283041661080c8187610ac2565b955060ff1983168652808601935050610864565b6002820461082e8187610ac2565b955061083985610a4c565b60005b8281101561085b5781548189015260018201915060208101905061083c565b82880195505050505b505092915050565b6000610879601783610ab1565b91507f43616e646964617465206973206e6f742076616c69642e0000000000000000006000830152602082019050919050565b60006108b9601b83610ab1565b91507f43616e64696461746520697320616c72656164792065786973742e00000000006000830152602082019050919050565b6108f581610ad9565b82525050565b6000610907828461073b565b915081905092915050565b600061091e82846107de565b915081905092915050565b6000602082019050818103600083015261094381846106b7565b905092915050565b6000602082019050610960600083018461072c565b92915050565b6000602082019050818103600083015261098081846107a5565b905092915050565b600060208201905081810360008301526109a18161086c565b9050919050565b600060208201905081810360008301526109c1816108ac565b9050919050565b60006020820190506109dd60008301846108ec565b92915050565b6000604051905081810181811067ffffffffffffffff82111715610a0657600080fd5b8060405250919050565b600067ffffffffffffffff821115610a2757600080fd5b601f19601f8301169050602081019050919050565b6000819050602082019050919050565b60008190508160005260206000209050919050565b600081519050919050565b600081519050919050565b600081519050919050565b6000602082019050919050565b600082825260208201905092915050565b600082825260208201905092915050565b600082825260208201905092915050565b600081905092915050565b60008115159050919050565b6000819050919050565b82818337600083830152505050565b60005b83811015610b10578082015181840152602081019050610af5565b83811115610b1f576000848401525b50505050565b6000601f19601f8301169050919050565b610b3f81610ad9565b8114610b4a57600080fd5b5056fea365627a7a72315820c222a2bf54456618079f8aa1b859bffa810eb100b00ee5c571a6973be4b7543b6c6578706572696d656e74616cf564736f6c63430005100040",
  "source": "pragma solidity >=0.5.0 <0.7.0;\npragma experimental ABIEncoderV2;\n\n\ncontract Voting {\n    mapping(string => uint256) voters;\n    string[] public candidateList;\n\n    constructor(string[] memory _candidateNames) public {\n        candidateList = _candidateNames;\n    }\n\n    function getTotalVotesForCandidate(string memory _candidateName)\n        public\n        view\n        returns (uint256)\n    {\n        require(validCandidate(_candidateName), \"Candidate is not valid.\");\n        return voters[_candidateName];\n    }\n\n    function voteForCandidate(string memory _candidateName) public payable {\n        require(validCandidate(_candidateName), \"Candidate is not valid.\");\n        voters[_candidateName] += 1;\n    }\n\n    function addCandidate(string memory _candidateName) public payable {\n        require(!validCandidate(_candidateName), \"Candidate is already exist.\");\n        candidateList.push(_candidateName);\n    }\n\n    function getAllCandidates() public view returns(string[] memory) {\n        return candidateList;\n    }\n\n    function validCandidate(string memory _name) public view returns (bool) {\n        for (uint256 i = 0; i <= candidateList.length - 1; i++) {\n            if (\n                keccak256(abi.encodePacked(candidateList[i])) ==\n                keccak256(abi.encodePacked(_name))\n            ) {\n                return true;\n            }\n        }\n        return false;\n    }\n}\n",
  "sourcePath": "C:\\Users\\sshankariya\\Desktop\\DAPP-Examples\\DAPP-12\\contracts\\Voting.sol",
  "compiler": {
    "name": "solc",
    "version": "0.5.16+commit.9c3226ce.Emscripten.clang"
  },
  "schemaVersion": "3.1.0",
  "updatedAt": "2020-04-30T08:41:07.373Z",
  "networkType": "ethereum",
  "devdoc": {
    "methods": {}
  },
  "userdoc": {
    "methods": {}
  }
}