{
  "contractName": "SampleContract",
  "abi": [
    {
      "constant": true,
      "inputs": [],
      "name": "result",
      "outputs": [
        {
          "internalType": "uint256",
          "name": "",
          "type": "uint256"
        }
      ],
      "payable": false,
      "stateMutability": "view",
      "type": "function"
    },
    {
      "constant": true,
      "inputs": [],
      "name": "addition",
      "outputs": [
        {
          "internalType": "uint256",
          "name": "res",
          "type": "uint256"
        }
      ],
      "payable": false,
      "stateMutability": "pure",
      "type": "function"
    },
    {
      "constant": true,
      "inputs": [
        {
          "internalType": "uint256",
          "name": "a",
          "type": "uint256"
        },
        {
          "internalType": "uint256",
          "name": "b",
          "type": "uint256"
        }
      ],
      "name": "addTwoNumbers",
      "outputs": [
        {
          "internalType": "uint256",
          "name": "",
          "type": "uint256"
        }
      ],
      "payable": false,
      "stateMutability": "pure",
      "type": "function"
    },
    {
      "constant": true,
      "inputs": [
        {
          "internalType": "uint256",
          "name": "a",
          "type": "uint256"
        },
        {
          "internalType": "uint256",
          "name": "b",
          "type": "uint256"
        },
        {
          "internalType": "uint256",
          "name": "c",
          "type": "uint256"
        }
      ],
      "name": "addThreeNumbers",
      "outputs": [
        {
          "internalType": "uint256",
          "name": "",
          "type": "uint256"
        }
      ],
      "payable": false,
      "stateMutability": "pure",
      "type": "function"
    }
  ],
  "bytecode": "0x60806040526000805534801561001457600080fd5b506101d1806100246000396000f3fe608060405234801561001057600080fd5b506004361061004c5760003560e01c8063406255931461005157806365372147146100a7578063e2276f1c146100c5578063ec59712814610111575b600080fd5b6100916004803603606081101561006757600080fd5b8101908080359060200190929190803590602001909291908035906020019092919050505061012f565b6040518082815260200191505060405180910390f35b6100af610145565b6040518082815260200191505060405180910390f35b6100fb600480360360408110156100db57600080fd5b81019080803590602001909291908035906020019092919050505061014b565b6040518082815260200191505060405180910390f35b61011961015f565b6040518082815260200191505060405180910390f35b600061013c848484610179565b90509392505050565b60005481565b6000610157838361018c565b905092915050565b600080600190506000600290508082019250829250505090565b6000818385010190508090509392505050565b600081830190508090509291505056fea265627a7a7231582052ff594a6559247c40dfd3c2b7c8b6b04510d08ba5cd6927006b6f164a5b1e1464736f6c63430005100032",
  "source": "pragma solidity ^0.5.4;\r\n\r\ncontract SampleContract{\r\n    uint public result = 0;\r\n    function addition() public pure returns(uint res){\r\n        uint a = 1;\r\n        uint b = 2;\r\n        res = a + b;\r\n        return res;\r\n    }\r\n\r\n    function getSum(uint a, uint b) internal pure returns(uint res){\r\n        res = a + b;\r\n        return res;\r\n    }\r\n\r\n    function getSum(uint a, uint b, uint c) internal pure returns(uint res){\r\n        res = a + b + c;\r\n        return res;\r\n    }\r\n\r\n    function addTwoNumbers(uint a, uint b) public pure returns(uint){\r\n        return getSum(a, b);\r\n    }\r\n\r\n    function addThreeNumbers(uint a, uint b, uint c) public pure returns(uint){\r\n        return getSum(a, b, c);\r\n    }\r\n}",
  "sourcePath": "C:\\Users\\sshankariya\\Desktop\\DAPP-Examples\\DAPP-5\\contracts\\SampleContract.sol",
  "compiler": {
    "name": "solc",
    "version": "0.5.16+commit.9c3226ce.Emscripten.clang"
  },
  "schemaVersion": "3.0.23",
  "updatedAt": "2020-04-10T15:23:12.810Z",
  "networkType": "ethereum",
  "devdoc": {
    "methods": {}
  },
  "userdoc": {
    "methods": {}
  }
}