{
  "contractName": "Conference",
  "abi": [
    {
      "inputs": [],
      "payable": false,
      "stateMutability": "nonpayable",
      "type": "constructor"
    },
    {
      "anonymous": false,
      "inputs": [
        {
          "indexed": false,
          "internalType": "address",
          "name": "_from",
          "type": "address"
        },
        {
          "indexed": false,
          "internalType": "uint256",
          "name": "_amount",
          "type": "uint256"
        }
      ],
      "name": "Deposit",
      "type": "event"
    },
    {
      "constant": true,
      "inputs": [],
      "name": "numberOfRegistrants",
      "outputs": [
        {
          "internalType": "uint256",
          "name": "",
          "type": "uint256"
        }
      ],
      "payable": false,
      "stateMutability": "view",
      "type": "function"
    },
    {
      "constant": true,
      "inputs": [],
      "name": "owner",
      "outputs": [
        {
          "internalType": "address payable",
          "name": "",
          "type": "address"
        }
      ],
      "payable": false,
      "stateMutability": "view",
      "type": "function"
    },
    {
      "constant": true,
      "inputs": [],
      "name": "quota",
      "outputs": [
        {
          "internalType": "uint256",
          "name": "",
          "type": "uint256"
        }
      ],
      "payable": false,
      "stateMutability": "view",
      "type": "function"
    },
    {
      "constant": true,
      "inputs": [
        {
          "internalType": "address",
          "name": "",
          "type": "address"
        }
      ],
      "name": "registrants",
      "outputs": [
        {
          "internalType": "uint256",
          "name": "",
          "type": "uint256"
        }
      ],
      "payable": false,
      "stateMutability": "view",
      "type": "function"
    },
    {
      "constant": false,
      "inputs": [
        {
          "internalType": "uint256",
          "name": "newQuota",
          "type": "uint256"
        }
      ],
      "name": "changeQuota",
      "outputs": [],
      "payable": true,
      "stateMutability": "payable",
      "type": "function"
    },
    {
      "constant": false,
      "inputs": [
        {
          "internalType": "uint256",
          "name": "_ticketPrice",
          "type": "uint256"
        }
      ],
      "name": "buyTicket",
      "outputs": [],
      "payable": false,
      "stateMutability": "nonpayable",
      "type": "function"
    },
    {
      "constant": false,
      "inputs": [],
      "name": "destroy",
      "outputs": [],
      "payable": false,
      "stateMutability": "nonpayable",
      "type": "function"
    }
  ],
  "bytecode": "0x608060405234801561001057600080fd5b50336000806101000a81548173ffffffffffffffffffffffffffffffffffffffff021916908373ffffffffffffffffffffffffffffffffffffffff1602179055506064600381905550600060028190555061059d806100706000396000f3fe6080604052600436106100705760003560e01c80638da5cb5b1161004e5780638da5cb5b146100f2578063a977c71e14610149578063b08c1e1614610177578063cebe09c9146101dc57610070565b806335dca31e1461007557806367dd74ca146100a057806383197ef0146100db575b600080fd5b34801561008157600080fd5b5061008a610207565b6040518082815260200191505060405180910390f35b3480156100ac57600080fd5b506100d9600480360360208110156100c357600080fd5b810190808035906020019092919050505061020d565b005b3480156100e757600080fd5b506100f061032d565b005b3480156100fe57600080fd5b50610107610429565b604051808273ffffffffffffffffffffffffffffffffffffffff1673ffffffffffffffffffffffffffffffffffffffff16815260200191505060405180910390f35b6101756004803603602081101561015f57600080fd5b810190808035906020019092919050505061044e565b005b34801561018357600080fd5b506101c66004803603602081101561019a57600080fd5b81019080803573ffffffffffffffffffffffffffffffffffffffff16906020019092919050505061051a565b6040518082815260200191505060405180910390f35b3480156101e857600080fd5b506101f1610532565b6040518082815260200191505060405180910390f35b60025481565b60035460025410610269576040517f08c379a00000000000000000000000000000000000000000000000000000000081526004018080602001828103825260308152602001806105396030913960400191505060405180910390fd5b80600160003373ffffffffffffffffffffffffffffffffffffffff1673ffffffffffffffffffffffffffffffffffffffff168152602001908152602001600020819055506002600081548092919060010191905055507fe1fffcc4923d04b559f4d29a8bfc6cda04eb5b0d3c460751c2402c5c5cc9109c3382604051808373ffffffffffffffffffffffffffffffffffffffff1673ffffffffffffffffffffffffffffffffffffffff1681526020018281526020019250505060405180910390a150565b6000809054906101000a900473ffffffffffffffffffffffffffffffffffffffff1673ffffffffffffffffffffffffffffffffffffffff163373ffffffffffffffffffffffffffffffffffffffff16146103ef576040517f08c379a00000000000000000000000000000000000000000000000000000000081526004018080602001828103825260158152602001807f4f6e6c79206f776e65722068617320726967687473000000000000000000000081525060200191505060405180910390fd5b6000809054906101000a900473ffffffffffffffffffffffffffffffffffffffff1673ffffffffffffffffffffffffffffffffffffffff16ff5b6000809054906101000a900473ffffffffffffffffffffffffffffffffffffffff1681565b6000809054906101000a900473ffffffffffffffffffffffffffffffffffffffff1673ffffffffffffffffffffffffffffffffffffffff163373ffffffffffffffffffffffffffffffffffffffff1614610510576040517f08c379a00000000000000000000000000000000000000000000000000000000081526004018080602001828103825260158152602001807f4f6e6c79206f776e65722068617320726967687473000000000000000000000081525060200191505060405180910390fd5b8060038190555050565b60016020528060005260406000206000915090505481565b6003548156fe4e756d626572206f6620726567697374726174696f6e2073686f756c64206265206c657373207468616e2071756f7461a265627a7a7231582016d55c3556d3bcd616c7ed8f4ab4ba239402b64046c1e296422772764e0e32c664736f6c63430005100032",
  "source": "pragma solidity ^0.5.4;\r\n\r\n\r\ncontract Conference {\r\n\r\n    // Address datatype to store 20bytes data. No arthemetic operations\r\n    address payable public owner; //It is marked as 'payable' to manage ethers(transfer, call, send)\r\n    // Mapping of any datatype with any type\r\n    mapping(address => uint256) public registrants;\r\n    // to store integer value\r\n    uint256 public numberOfRegistrants;\r\n    // to store integer value\r\n    uint256 public quota;\r\n\r\n    // Event declaration for amount deposit\r\n    event Deposit(address _from, uint256 _amount);\r\n\r\n    //Constructor for initializing state variables\r\n    constructor() public {\r\n        owner = msg.sender;\r\n        quota = 100;\r\n        numberOfRegistrants = 0;\r\n    }\r\n\r\n    // Modifier to check whether sender is owner\r\n    modifier onlyOwner() {\r\n        require(msg.sender == owner, \"Only owner has rights\");\r\n        _;\r\n    }\r\n\r\n    // Public function along with modifier to change quota\r\n    function changeQuota(uint256 newQuota) public payable onlyOwner {\r\n        quota = newQuota;\r\n    }\r\n\r\n    // Modifier to check number of registrants is less than quota\r\n    modifier numberOfRegistrantsChecker() {\r\n        require(\r\n            numberOfRegistrants < quota,\r\n            \"Number of registration should be less than quota\"\r\n        );\r\n        _;\r\n    }\r\n\r\n    // Public function to buy ticket and emit deposit event\r\n    function buyTicket(uint256 _ticketPrice) public numberOfRegistrantsChecker {\r\n        registrants[msg.sender] = _ticketPrice; //Add buyer detail\r\n        numberOfRegistrants++;\r\n        emit Deposit(msg.sender, _ticketPrice); //Emit event\r\n    }\r\n\r\n    function destroy() public onlyOwner {\r\n        selfdestruct(owner);\r\n    }\r\n}\r\n",
  "sourcePath": "C:\\Users\\sshankariya\\Desktop\\DAPP-Examples\\DAPP-7\\contracts\\Conference.sol",
  "compiler": {
    "name": "solc",
    "version": "0.5.16+commit.9c3226ce.Emscripten.clang"
  },
  "schemaVersion": "3.0.23",
  "updatedAt": "2020-04-15T13:21:51.371Z",
  "networkType": "ethereum",
  "devdoc": {
    "methods": {}
  },
  "userdoc": {
    "methods": {}
  }
}