{
  "contractName": "Voting",
  "abi": [
    {
      "inputs": [
        {
          "internalType": "string",
          "name": "_candidateName",
          "type": "string"
        },
        {
          "internalType": "string",
          "name": "_politicalParty",
          "type": "string"
        },
        {
          "internalType": "uint8",
          "name": "_age",
          "type": "uint8"
        }
      ],
      "payable": false,
      "stateMutability": "nonpayable",
      "type": "constructor"
    },
    {
      "anonymous": false,
      "inputs": [
        {
          "components": [
            {
              "internalType": "uint256",
              "name": "id",
              "type": "uint256"
            },
            {
              "internalType": "string",
              "name": "name",
              "type": "string"
            },
            {
              "internalType": "string",
              "name": "politicalParty",
              "type": "string"
            },
            {
              "internalType": "uint8",
              "name": "age",
              "type": "uint8"
            },
            {
              "internalType": "uint256",
              "name": "totalVotes",
              "type": "uint256"
            }
          ],
          "indexed": false,
          "internalType": "struct Voting.Candidate[]",
          "name": "candidates",
          "type": "tuple[]"
        }
      ],
      "name": "BroadcastAllCandidates",
      "type": "event"
    },
    {
      "anonymous": false,
      "inputs": [
        {
          "indexed": false,
          "internalType": "bool",
          "name": "flag",
          "type": "bool"
        },
        {
          "components": [
            {
              "internalType": "uint256",
              "name": "id",
              "type": "uint256"
            },
            {
              "internalType": "string",
              "name": "name",
              "type": "string"
            },
            {
              "internalType": "string",
              "name": "politicalParty",
              "type": "string"
            },
            {
              "internalType": "uint8",
              "name": "age",
              "type": "uint8"
            },
            {
              "internalType": "uint256",
              "name": "totalVotes",
              "type": "uint256"
            }
          ],
          "indexed": false,
          "internalType": "struct Voting.Candidate[]",
          "name": "candidates",
          "type": "tuple[]"
        }
      ],
      "name": "BroadcastVoteResult",
      "type": "event"
    },
    {
      "constant": true,
      "inputs": [
        {
          "internalType": "uint256",
          "name": "",
          "type": "uint256"
        }
      ],
      "name": "candidateList",
      "outputs": [
        {
          "internalType": "uint256",
          "name": "id",
          "type": "uint256"
        },
        {
          "internalType": "string",
          "name": "name",
          "type": "string"
        },
        {
          "internalType": "string",
          "name": "politicalParty",
          "type": "string"
        },
        {
          "internalType": "uint8",
          "name": "age",
          "type": "uint8"
        },
        {
          "internalType": "uint256",
          "name": "totalVotes",
          "type": "uint256"
        }
      ],
      "payable": false,
      "stateMutability": "view",
      "type": "function"
    },
    {
      "constant": true,
      "inputs": [
        {
          "internalType": "string",
          "name": "_candidateName",
          "type": "string"
        }
      ],
      "name": "getTotalVotesForCandidate",
      "outputs": [
        {
          "internalType": "uint256",
          "name": "",
          "type": "uint256"
        }
      ],
      "payable": false,
      "stateMutability": "view",
      "type": "function"
    },
    {
      "constant": false,
      "inputs": [
        {
          "internalType": "string",
          "name": "_candidateName",
          "type": "string"
        }
      ],
      "name": "voteForCandidate",
      "outputs": [],
      "payable": true,
      "stateMutability": "payable",
      "type": "function"
    },
    {
      "constant": false,
      "inputs": [
        {
          "internalType": "string",
          "name": "_candidateName",
          "type": "string"
        },
        {
          "internalType": "string",
          "name": "_politicalParty",
          "type": "string"
        },
        {
          "internalType": "uint8",
          "name": "_age",
          "type": "uint8"
        }
      ],
      "name": "addCandidate",
      "outputs": [],
      "payable": true,
      "stateMutability": "payable",
      "type": "function"
    },
    {
      "constant": true,
      "inputs": [],
      "name": "getAllCandidates",
      "outputs": [
        {
          "components": [
            {
              "internalType": "uint256",
              "name": "id",
              "type": "uint256"
            },
            {
              "internalType": "string",
              "name": "name",
              "type": "string"
            },
            {
              "internalType": "string",
              "name": "politicalParty",
              "type": "string"
            },
            {
              "internalType": "uint8",
              "name": "age",
              "type": "uint8"
            },
            {
              "internalType": "uint256",
              "name": "totalVotes",
              "type": "uint256"
            }
          ],
          "internalType": "struct Voting.Candidate[]",
          "name": "",
          "type": "tuple[]"
        }
      ],
      "payable": false,
      "stateMutability": "view",
      "type": "function"
    },
    {
      "constant": true,
      "inputs": [
        {
          "internalType": "string",
          "name": "_name",
          "type": "string"
        }
      ],
      "name": "validCandidate",
      "outputs": [
        {
          "internalType": "bool",
          "name": "",
          "type": "bool"
        }
      ],
      "payable": false,
      "stateMutability": "view",
      "type": "function"
    }
  ],
  "bytecode": "0x60806040523480156200001157600080fd5b5060405162001818380380620018188339818101604052620000379190810190620002b9565b6200004162000165565b6040518060a001604052806200005e86866200012d60201b60201c565b81526020018581526020018481526020018360ff1681526020016000815250905060018190806001815401808255809150509060018203906000526020600020906005020160009091929091909150600082015181600001556020820151816001019080519060200190620000d592919062000197565b506040820151816002019080519060200190620000f492919062000197565b5060608201518160030160006101000a81548160ff021916908360ff16021790555060808201518160040155505050505050506200046e565b600082826040516020016200014492919062000378565b6040516020818303038152906040528051906020012060001c905092915050565b6040518060a00160405280600081526020016060815260200160608152602001600060ff168152602001600081525090565b828054600181600116156101000203166002900490600052602060002090601f016020900481019282601f10620001da57805160ff19168380011785556200020b565b828001600101855582156200020b579182015b828111156200020a578251825591602001919060010190620001ed565b5b5090506200021a91906200021e565b5090565b6200024391905b808211156200023f57600081600090555060010162000225565b5090565b90565b600082601f8301126200025857600080fd5b81516200026f6200026982620003ce565b620003a0565b915080825260208301602083018583830111156200028c57600080fd5b620002998382846200041e565b50505092915050565b600081519050620002b38162000454565b92915050565b600080600060608486031215620002cf57600080fd5b600084015167ffffffffffffffff811115620002ea57600080fd5b620002f88682870162000246565b935050602084015167ffffffffffffffff8111156200031657600080fd5b620003248682870162000246565b92505060406200033786828701620002a2565b9150509250925092565b60006200034e82620003fb565b6200035a818562000406565b93506200036c8185602086016200041e565b80840191505092915050565b600062000386828562000341565b915062000394828462000341565b91508190509392505050565b6000604051905081810181811067ffffffffffffffff82111715620003c457600080fd5b8060405250919050565b600067ffffffffffffffff821115620003e657600080fd5b601f19601f8301169050602081019050919050565b600081519050919050565b600081905092915050565b600060ff82169050919050565b60005b838110156200043e57808201518184015260208101905062000421565b838111156200044e576000848401525b50505050565b6200045f8162000411565b81146200046b57600080fd5b50565b61139a806200047e6000396000f3fe6080604052600436106100555760003560e01c80632e6997fe1461005a578063538c91b2146100855780635fa71c4a146100c2578063b13c744b146100de578063dc87ae491461011f578063e89927ef1461015c575b600080fd5b34801561006657600080fd5b5061006f610178565b60405161007c9190610ff9565b60405180910390f35b34801561009157600080fd5b506100ac60048036036100a79190810190610a07565b61034c565b6040516100b9919061103d565b60405180910390f35b6100dc60048036036100d79190810190610a48565b6103f5565b005b3480156100ea57600080fd5b5061010560048036036101009190810190610ac7565b61055a565b6040516101169594939291906110e3565b60405180910390f35b34801561012b57600080fd5b5061014660048036036101419190810190610a07565b6106da565b60405161015391906110c8565b60405180910390f35b61017660048036036101719190810190610a07565b61074a565b005b60606001805480602002602001604051908101604052809291908181526020016000905b8282101561034357838290600052602060002090600502016040518060a001604052908160008201548152602001600182018054600181600116156101000203166002900480601f0160208091040260200160405190810160405280929190818152602001828054600181600116156101000203166002900480156102625780601f1061023757610100808354040283529160200191610262565b820191906000526020600020905b81548152906001019060200180831161024557829003601f168201915b50505050508152602001600282018054600181600116156101000203166002900480601f0160208091040260200160405190810160405280929190818152602001828054600181600116156101000203166002900480156103045780601f106102d957610100808354040283529160200191610304565b820191906000526020600020905b8154815290600101906020018083116102e757829003601f168201915b505050505081526020016003820160009054906101000a900460ff1660ff1660ff1681526020016004820154815250508152602001906001019061019c565b50505050905090565b600080600090505b600180805490500381116103ea57826040516020016103739190610fa7565b604051602081830303815290604052805190602001206001828154811061039657fe5b90600052602060002090600502016001016040516020016103b79190610fe2565b6040516020818303038152906040528051906020012014156103dd5760019150506103f0565b8080600101915050610354565b50600090505b919050565b6103fe8361034c565b1561043e576040517f08c379a0000000000000000000000000000000000000000000000000000000008152600401610435906110a8565b60405180910390fd5b6104466108b2565b6040518060a0016040528061045b868661087c565b81526020018581526020018481526020018360ff16815260200160008152509050600181908060018154018082558091505090600182039060005260206000209060050201600090919290919091506000820151816000015560208201518160010190805190602001906104d09291906108e4565b5060408201518160020190805190602001906104ed9291906108e4565b5060608201518160030160006101000a81548160ff021916908360ff160217905550608082015181600401555050507f72d2a670126ce6d65b26c442d168bbe486476793a191f5337e7209a4559a4e91600160405161054c919061101b565b60405180910390a150505050565b6001818154811061056757fe5b9060005260206000209060050201600091509050806000015490806001018054600181600116156101000203166002900480601f0160208091040260200160405190810160405280929190818152602001828054600181600116156101000203166002900480156106195780601f106105ee57610100808354040283529160200191610619565b820191906000526020600020905b8154815290600101906020018083116105fc57829003601f168201915b505050505090806002018054600181600116156101000203166002900480601f0160208091040260200160405190810160405280929190818152602001828054600181600116156101000203166002900480156106b75780601f1061068c576101008083540402835291602001916106b7565b820191906000526020600020905b81548152906001019060200180831161069a57829003601f168201915b5050505050908060030160009054906101000a900460ff16908060040154905085565b60006106e58261034c565b610724576040517f08c379a000000000000000000000000000000000000000000000000000000000815260040161071b90611088565b60405180910390fd5b6000826040516107349190610fa7565b9081526020016040518091039020549050919050565b6107538161034c565b610792576040517f08c379a000000000000000000000000000000000000000000000000000000000815260040161078990611088565b60405180910390fd5b60016000826040516107a49190610fa7565b90815260200160405180910390206000828254019250508190555060008090505b6001808054905003811161083e576000600182815481106107e257fe5b90600052602060002090600502016001016040516108009190610fe2565b9081526020016040518091039020546001828154811061081c57fe5b90600052602060002090600502016004018190555080806001019150506107c5565b507f75956b4dc7875dbe86299fb9fd44440a455a77065e2d996803287b229b200780600180604051610871929190611058565b60405180910390a150565b60008282604051602001610891929190610fbe565b6040516020818303038152906040528051906020012060001c905092915050565b6040518060a00160405280600081526020016060815260200160608152602001600060ff168152602001600081525090565b828054600181600116156101000203166002900490600052602060002090601f016020900481019282601f1061092557805160ff1916838001178555610953565b82800160010185558215610953579182015b82811115610952578251825591602001919060010190610937565b5b5090506109609190610964565b5090565b61098691905b8082111561098257600081600090555060010161096a565b5090565b90565b600082601f83011261099a57600080fd5b81356109ad6109a882611171565b611144565b915080825260208301602083018583830111156109c957600080fd5b6109d4838284611295565b50505092915050565b6000813590506109ec81611329565b92915050565b600081359050610a0181611340565b92915050565b600060208284031215610a1957600080fd5b600082013567ffffffffffffffff811115610a3357600080fd5b610a3f84828501610989565b91505092915050565b600080600060608486031215610a5d57600080fd5b600084013567ffffffffffffffff811115610a7757600080fd5b610a8386828701610989565b935050602084013567ffffffffffffffff811115610aa057600080fd5b610aac86828701610989565b9250506040610abd868287016109f2565b9150509250925092565b600060208284031215610ad957600080fd5b6000610ae7848285016109dd565b91505092915050565b6000610afc8383610e50565b905092915050565b6000610b108383610ecd565b905092915050565b6000610b23826111d7565b610b2d818561121d565b935083602082028501610b3f8561119d565b8060005b85811015610b7b5784840389528151610b5c8582610af0565b9450610b6783611203565b925060208a01995050600181019050610b43565b50829750879550505050505092915050565b6000610b98826111e2565b610ba2818561121d565b935083602082028501610bb4856111ad565b8060005b85811015610bef57848403895281610bd08582610b04565b9450610bdb83611210565b925060208a01995050600181019050610bb8565b50829750879550505050505092915050565b610c0a81611272565b82525050565b6000610c1b826111f8565b610c258185611250565b9350610c358185602086016112a4565b80840191505092915050565b6000610c4c826111ed565b610c56818561122e565b9350610c668185602086016112a4565b610c6f8161130b565b840191505092915050565b6000610c85826111ed565b610c8f818561123f565b9350610c9f8185602086016112a4565b610ca88161130b565b840191505092915050565b600081546001811660008114610cd05760018114610cf657610d3a565b607f6002830416610ce1818761122e565b955060ff198316865260208601935050610d3a565b60028204610d04818761122e565b9550610d0f856111c2565b60005b82811015610d3157815481890152600182019150602081019050610d12565b80880195505050505b505092915050565b600081546001811660008114610d5f5760018114610d8457610dc8565b607f6002830416610d708187611250565b955060ff1983168652808601935050610dc8565b60028204610d928187611250565b9550610d9d856111c2565b60005b82811015610dbf57815481890152600182019150602081019050610da0565b82880195505050505b505092915050565b6000610ddd60178361123f565b91507f43616e646964617465206973206e6f742076616c69642e0000000000000000006000830152602082019050919050565b6000610e1d601b8361123f565b91507f43616e64696461746520697320616c72656164792065786973742e00000000006000830152602082019050919050565b600060a083016000830151610e686000860182610f6b565b5060208301518482036020860152610e808282610c41565b91505060408301518482036040860152610e9a8282610c41565b9150506060830151610eaf6060860182610f89565b506080830151610ec26080860182610f6b565b508091505092915050565b600060a083016000808401549050610ee4816112d7565b610ef16000870182610f6b565b50600184018583036020870152610f088382610cb3565b925050600284018583036040870152610f218382610cb3565b92505060038401549050610f34816112f1565b610f416060870182610f89565b5060048401549050610f52816112d7565b610f5f6080870182610f6b565b50819250505092915050565b610f748161127e565b82525050565b610f838161127e565b82525050565b610f9281611288565b82525050565b610fa181611288565b82525050565b6000610fb38284610c10565b915081905092915050565b6000610fca8285610c10565b9150610fd68284610c10565b91508190509392505050565b6000610fee8284610d42565b915081905092915050565b600060208201905081810360008301526110138184610b18565b905092915050565b600060208201905081810360008301526110358184610b8d565b905092915050565b60006020820190506110526000830184610c01565b92915050565b600060408201905061106d6000830185610c01565b818103602083015261107f8184610b8d565b90509392505050565b600060208201905081810360008301526110a181610dd0565b9050919050565b600060208201905081810360008301526110c181610e10565b9050919050565b60006020820190506110dd6000830184610f7a565b92915050565b600060a0820190506110f86000830188610f7a565b818103602083015261110a8187610c7a565b9050818103604083015261111e8186610c7a565b905061112d6060830185610f98565b61113a6080830184610f7a565b9695505050505050565b6000604051905081810181811067ffffffffffffffff8211171561116757600080fd5b8060405250919050565b600067ffffffffffffffff82111561118857600080fd5b601f19601f8301169050602081019050919050565b6000819050602082019050919050565b60008190508160005260206000209050919050565b60008190508160005260206000209050919050565b600081519050919050565b600081549050919050565b600081519050919050565b600081519050919050565b6000602082019050919050565b6000600582019050919050565b600082825260208201905092915050565b600082825260208201905092915050565b600082825260208201905092915050565b600081905092915050565b6000819050919050565b600060ff82169050919050565b60008115159050919050565b6000819050919050565b600060ff82169050919050565b82818337600083830152505050565b60005b838110156112c25780820151818401526020810190506112a7565b838111156112d1576000848401525b50505050565b60006112ea6112e58361131c565b61125b565b9050919050565b60006113046112ff8361131c565b611265565b9050919050565b6000601f19601f8301169050919050565b60008160001c9050919050565b6113328161127e565b811461133d57600080fd5b50565b61134981611288565b811461135457600080fd5b5056fea365627a7a72315820cb13ca6df4e74cc324eae5a7dfebd41c860ff7611e64ec50ff4b2ace58c420946c6578706572696d656e74616cf564736f6c63430005100040",
  "source": "pragma solidity >=0.5.0 <0.7.0;\npragma experimental ABIEncoderV2;\n\n\ncontract Voting {\n    struct Candidate {\n        uint256 id; // Auto generated uint256 id\n        string name; // Name of candidate\n        string politicalParty; // political party name\n        uint8 age; // age of candidate\n        uint256 totalVotes;\n    }\n    mapping(string => uint256) voters;\n    Candidate[] public candidateList;\n\n    event BroadcastAllCandidates(Candidate[] candidates);\n    event BroadcastVoteResult(bool flag, Candidate[] candidates);\n\n    constructor(\n        string memory _candidateName,\n        string memory _politicalParty,\n        uint8 _age\n    ) public {\n        Candidate memory c = Candidate(\n            generateId(_candidateName, _politicalParty),\n            _candidateName,\n            _politicalParty,\n            _age,\n            0\n        );\n        candidateList.push(c);\n    }\n\n    function getTotalVotesForCandidate(string memory _candidateName)\n        public\n        view\n        returns (uint256)\n    {\n        require(validCandidate(_candidateName), \"Candidate is not valid.\");\n        return voters[_candidateName];\n    }\n\n    function voteForCandidate(string memory _candidateName) public payable {\n        require(validCandidate(_candidateName), \"Candidate is not valid.\");\n        voters[_candidateName] += 1;\n        for (uint256 i = 0; i <= candidateList.length - 1; i++) {\n            candidateList[i].totalVotes = voters[candidateList[i].name];\n        }\n        emit BroadcastVoteResult(true, candidateList);\n    }\n\n    function addCandidate(\n        string memory _candidateName,\n        string memory _politicalParty,\n        uint8 _age\n    ) public payable {\n        require(!validCandidate(_candidateName), \"Candidate is already exist.\");\n        Candidate memory c = Candidate(\n            generateId(_candidateName, _politicalParty),\n            _candidateName,\n            _politicalParty,\n            _age,\n            0\n        );\n        candidateList.push(c);\n        emit BroadcastAllCandidates(candidateList);\n    }\n\n    function getAllCandidates() public view returns (Candidate[] memory) {\n        return candidateList;\n    }\n\n    function validCandidate(string memory _name) public view returns (bool) {\n        for (uint256 i = 0; i <= candidateList.length - 1; i++) {\n            if (\n                keccak256(abi.encodePacked(candidateList[i].name)) ==\n                keccak256(abi.encodePacked(_name))\n            ) {\n                return true;\n            }\n        }\n        return false;\n    }\n\n    function generateId(\n        string memory _candidateName,\n        string memory _politicalParty\n    ) internal pure returns (uint256) {\n        return\n            uint256(\n                keccak256(abi.encodePacked(_candidateName, _politicalParty))\n            );\n    }\n}\n",
  "sourcePath": "C:\\Users\\sshankariya\\Desktop\\DAPP-Examples\\DAPP-12\\contracts\\Voting.sol",
  "compiler": {
    "name": "solc",
    "version": "0.5.16+commit.9c3226ce.Emscripten.clang"
  },
  "schemaVersion": "3.1.0",
  "updatedAt": "2020-06-10T21:10:17.746Z",
  "networkType": "ethereum",
  "devdoc": {
    "methods": {}
  },
  "userdoc": {
    "methods": {}
  }
}